:100000000C9451000C94E3140C94E3140C9411120E
:100010000C94E3140C94E3140C94B9060C94E314BC
:100020000C94E3140C94E3140C94E3140C94E31474
:100030000C94E3140C94E3140C94E3140C94E31464
:100040000C94E3140C94E3140C94E3140C94E31454
:100050000C94E3140C94E3140C94E3140C94E31444
:100060000C94E3140C94E3140C94E3140C94E31434
:100070000C94E3140C94E3140C94E3140C94E31424
:100080000C94E3140C94E3140C94E3140C94E31414
:10009000300030A88030A830AC0029D430AC30B467
:1000A000800011241FBECFEFCDBFDFE3DEBFE0E94C
:1000B000F0E040E017C0B591A591359125910591EB
:1000C00007FD0CC095918591EF01F92FE82F059060
:1000D0000D92A217B307D9F7FE0104C01D92A21713
:1000E000B307E1F7E13AF40731F70E94DD030C941E
:0600F0005614F894FFCF46
:1000F600AEE0B0E0E1E8F0E00C9418134C016B01BF
:1001060019821A828FEF9FEF8B839C831D821E823A
:100116004F83588729873A87A12CB12CD6016D9039
:100126007C90F301EA0DFB1D808181110FC0D60181
:10013600ED93FC938081853209F0D3C13F01BFEF77
:100146006B1A7B0AF6016082718219C0853279F3D7
:10015600B401082E000C990B0E94F70D4FEFA41A5C
:10016600B40ADCCF8C32ACF08D32F9F489819A81F5
:10017600816089839A833196D601ED93FC93D601EB
:10018600ED91FC9180818B3269F789819A81846037
:10019600F0CF803221F489819A818860EACF833258
:1001A60051F489819A818061E4CF803321F4898179
:1001B6009A818260DECFB701C6010E948D118D83C0
:1001C6009E8397FF0BC029813A81B1E02B272983B3
:1001D6003A839195819591098D839E8389819A8130
:1001E60080FF03C08D7F89839A83D601ED91FC91B0
:1001F600119780818E3249F43196ED93FC93B701C5
:10020600C6010E948D118B839C83C6010E949D129C
:10021600582ED601ED91FC918081082E000C990B89
:100226000E948514893609F443C084F4833609F4A0
:1002360002C134F4853209F427C18136E1F030C1B8
:100246008436B1F188360CF4D9C02AC1803709F456
:100256009AC03CF48E3609F4BCC08F3609F461C0EE
:100266001FC1853709F440C0883709F476C0833743
:1002760009F016C1F3C0652D70E0A701CE010B96FB
:100286000E940000892B09F426C1D601ED91FC914C
:100296001197CF0101968D939C932081AE01455F06
:1002A6005F4FBE016F5F7F4FC4010E94000010C107
:1002B600652D70E0970141E050E0CE010B960E945B
:1002C600BE0B892B09F407C1F60180819181019645
:1002D60080839183AE01455F5F4FBE016F5F7F4FA5
:1002E600C4010E94730AF4C0652D70E0970140E0D6
:1002F60050E0CE010B960E94BE0B892B09F4EBC091
:10030600D6018D919C91119701968D939C93AE0188
:10031600455F5F4FBE016F5F7F4FC4010E94D60EDF
:10032600D7C0652D70E0970140E050E0CE010B96F6
:100336000E94BE0B892B09F4CEC0F6018081918103
:10034600019680839183AE01455F5F4FBE016F5F6B
:100356007F4FC4010E94F20CBBC0652D70E097016F
:1003660040E050E0CE010B960E94BE0B892B09F4AB
:10037600B2C0D601ED91FC911197CF0101968D93F4
:100386009C9320811CC0970140E050E060EF70E034
:10039600CE010B960E94BE0B892B09F49CC0F60178
:1003A600808191810196808391838B859C85892BA1
:1003B60029F420E030E040EC59E684C028E7AE019D
:1003C600455F5F4FBE016F5F7F4FC4010E94DF0430
:1003D6007FC0A501400F511F652D70E09701CE012A
:1003E6000B960E940000892B09F475C0D6018D91E9
:1003F6009C91119701968D939C9373C0652D70E027
:10040600A701CE010B960E940000892B09F463C058
:10041600D601ED91FC911197CF0101968D939C9396
:100426002081AE01455F5F4FBE016F5F7F4FC40104
:100436000E9400004DC0B0E85B124DC0F6018081FD
:100446009181019680839183D701ED91FC9111975B
:10045600CF0102968D939C93808120C0B0E85B12F9
:100466003AC0F60180819181019680839183D701FC
:10047600ED91FC911197CF0102968D939C9340814B
:10048600518120E030E01EC0B0E85B1224C0F601C6
:10049600208131812F5F3F4F208331838B870DC0B1
:1004A60085E28B87D6016D927C9219821A821D8213
:1004B6001E828FEF9FEF8B839C8321E030E0AE019D
:1004C600455F5F4FBE016F5F7F4FC4010E94E7111A
:1004D6008A0D9B1D07C0F60180819181019680835C
:0C04E6009183C5012E96EFE00C944913A1
:1004F2008F929F92AF92BF92CF92DF92EF92FF9232
:100502000F931F93CF93DF93CDB7DEB72E97CDBF57
:10051200DEBF8C016D877E87CE0101960E94830922
:1005220069817A818B819C810E945D08882309F40C
:10053200C5C0E0E4F1E02085318580915E30909184
:100542005F30A0916030B0916130809072309090B5
:100552007330A0907430B090753040855185C09052
:100562005E30D0905F30E0906030F0906130C40E29
:10057200D51EE11CF11CC0927230D0927330E09211
:100582007430F0927530820F931FA11DB11DBC0112
:10059200CD01681979098A099B090E94970F20E009
:1005A20030E04AE754E40E94CE149B01AC0160E0C3
:1005B20070E080E792E40E94CE1460936E307093F4
:1005C2006F30809370309093713060916E30709183
:1005D2006F30809170309091713020E030E04FE7C1
:1005E20053E40E94C41488230CF068C060916E30FA
:1005F20070916F30809170309091713020E030E0D6
:1006020040EA51E40E94C91418160CF057C0E09059
:10061200AE3081E08E0D8093AE30F12C60916E3061
:1006220070916F3080917030909171300E945E11A4
:10063200F701E659FF4C60838091AE30837080935E
:10064200AE30F8011082118212821382E12CF12C59
:10065200F701E659FF4C608170E080E090E00E9473
:10066200990FF80120813181428153810E949D14AA
:10067200F8016083718382839383FFEFEF1AFF0A8D
:1006820024E0E216F10421F720E030E040E85EE3E6
:100692000E94D214F80160837183828393830D8157
:1006A2001E8129813A814B815C81BE01635F7F4F4C
:1006B200072E000C880B990B0E94CD0589819A8127
:1006C200AB81BC818035934CA105B10508F05AC0BD
:1006D2008091AD3081111CC02091480130914901B7
:1006E20080915E3090915F30A0916030B091613026
:1006F200820F931FA11DB11D8093663090936730C6
:10070200A0936830B093693081E08093AD3044C0EB
:10071200209148013091490140915E3050915F3003
:100722006091603070916130C0906630D0906730D7
:10073200E0906830F0906930C901A0E0B0E08C1917
:100742009D09AE09BF09840F951FA61FB71F883BDD
:100752009B40A105B10500F141E060E081E00E940B
:10076200F9121092AD3010926630109267301092EA
:1007720068301092693084E08093B13081E08093D8
:10078200AF300AC01092AD301092663010926730CE
:1007920010926830109269302E96CDBFDEBFDF9185
:1007A200CF911F910F91FF90EF90DF90CF90BF906C
:0807B200AF909F908F90089515
:1007BA000E949B130E9415140E9488130E94C11361
:1007CA000E94A30D0E94F6130E94B8140E94951469
:1007DA008CEA99E60E94FB0878941092B33040E0C4
:1007EA0061E080E00E94F91200E411E00F2EF4E6C5
:1007FA00BF2EF02DC2E4D0E30F2EF8EECF2EF3E099
:10080A00DF2EE12CF12CF02D8091B230882319F1E2
:10081A00F8012085318540915E3050915F306091BA
:10082A00603070916130409096305090973060906F
:10083A00983070909930C901A0E0B0E08419950908
:10084A00A609B709840F951FA61FB71F883B9B40AF
:10085A00A105B10520F48091AF308823B1F18091D0
:10086A00B1308093B3301092B2301092AF300E9400
:10087A00BD128091B3308230B9F028F4882341F058
:10088A00813061F022C08330A9F08430C9F01DC0E4
:10089A0040E061E080E00E94F91217C040E061E0A8
:1008AA0081E00E94F91211C041E060E080E00E94FC
:1008BA00F9120BC040E060E081E00E94F91205C025
:1008CA0041E060E081E00E94F9120E94F6108091F6
:1008DA00B330823079F018F4813031F095CF83301B
:1008EA0079F08430A1F090CF61E082E890E30E9431
:1008FA008F078ACF60E08EE790E30E948F0784CF4C
:10090A0066E770E38AE790E30E9479027DCF6091FF
:10091A007E3070917F30809180309091813020912B
:10092A0082303091833040918430509185300E94DA
:10093A007B12B29EC001B39E900D112488839983C5
:10094A0060917A3070917B3080917C3090917D30CB
:10095A000E945E116A837B83609176307091773052
:10096A0080917830909179300E945E116C837D83FA
:10097A0060916230709163308091643090916530FB
:10098A00A70196010E947B122E833F8364E070E0E8
:10099A00CE010E944B0D40E061E080E00E94F91216
:1009AA001092B13081E08093AF300E94D40F0E9440
:0409BA00430E2ACFEF
:1009BE00AFE0B0E0E5EEF4E00C9415131C016B0112
:1009CE0049835A832B83FB01828193818480958096
:1009DE0000811181A680B78097FD02C00D7F02C0F5
:1009EE0081E090E0E981FA814080518062807380DD
:1009FE009801207133272C833D83740104FF08C0B6
:100A0E00411451046104710419F032E0E31AF10843
:100A1E00F801E870FF27EE83FF8303FF03C0F1E0C8
:100A2E00EF1AF108F6010084F185E02D3197EE877B
:100A3E00FF87EA0DFB1D10829C012E193F092887A6
:100A4E003987C801827099278A879B87EB818E2F01
:100A5E00EE0F990B9C01215431092C873D872E8571
:100A6E003F852230310530F48C819D81892B09F030
:100A7E0042C05CC0411451046104710461F18E8561
:100A8E009F8501978E879F87C2018F7099278A3025
:100A9E00910514F4C09602C0895A9F4FEC85FD85CE
:100AAE007A9748F49C012062215631092A3131058A
:100ABE0010F40E946C14EE85FF85EA0DFB1D8083F9
:100ACE00F1E0EF1AF10884E0769467945794479416
:100ADE008A95D1F7C4CF888599858E0D9F1D1816DE
:100AEE0019066CF21E141F040CF0BECFEA85FB85AE
:100AFE00EF2B29F6B9CFE981FA8180819181A2810C
:100B0E00B381892B8A2B8B2B89F0EE85FF85EA0D1D
:100B1E00FB1D31972B8120838E859F8502978E87B3
:100B2E009F87FC01EA0DFB1D80E38083EE81FF8130
:100B3E00EF2B59F02E853F85215031092E873F87A7
:100B4E00F901EA0DFB1D80E28083F6014085518597
:100B5E00415051092E853F85421B530BB9016A0D39
:100B6E007B1D9401C1010E9486109C01F1018081C0
:100B7E00918190FF06C0F6018281938182179307BF
:0C0B8E000CF4C9012F96E2E10C94461310
:100B9A004F925F926F927F928F929F92AF92BF9283
:100BAA00CF92DF92EF92FF920F931F93CF93DF932F
:100BBA002B013C0149015A01AB01BC018EE490E3CF
:100BCA000E942C117C01C2018E199F090E94FF0903
:100BDA006C01B501A4018AE490E30E942C11EC0196
:100BEA00C4018C1B9D0B0E94FF09209709F4ABC01E
:100BFA00E114F10409F4A7C0C114D10409F4A3C093
:100C0A00BC01990F880B990B0E94990F4B015C014B
:100C1A00BE01DD0F880B990B0E94990F9B01AC0155
:100C2A00C501B4010E94CE144B015C01B601DD0C72
:100C3A00880B990B0E94990F2B013C01B701FF0CFD
:100C4A00880B990B0E94990F9B01AC01C301B20159
:100C5A000E94CE149B01AC01C501B4010E94CE14BE
:100C6A0020E030E048EC51E40E94D2149B01AC0130
:100C7A0060E070E08CED92E40E949C144B015C01F0
:100C8A0020E030E048EC52E40E94C91418169CF0A7
:100C9A0020E030E04CE852E4C501B4010E94C414DB
:100CAA0088238CF40F2E812C912CFCE8AF2EF2E4D1
:100CBA00BF2EF02D08C00F2E812C912CF8ECAF2EF0
:100CCA00F2E4BF2EF02DC0905230D0905330E09015
:100CDA005430F09055308FEFC81AD80AE80AF80A4B
:100CEA00C0925230D0925330E0925430F092553044
:100CFA00409056305090573060905830709059302C
:100D0A00A3019201C501B4010E949C144B015C012C
:100D1A00C701B6010E94970F9B01AC01C501B4013E
:100D2A000E94CE14A30192010E949D146093563032
:100D3A00709357308093583090935930F8016083FC
:100D4A00718382839383DF91CF911F910F91FF90DB
:100D5A00EF90DF90CF90BF90AF909F908F907F9051
:080D6A006F905F904F90089517
:100D72001F921FB61F921124CF92DF92EF92FF9221
:100D82002F933F934F935F936F937F938F939F9391
:100D9200AF93BF938091090486FF28C08091B3303E
:100DA200811121C08091B23081111DC02091480172
:100DB2003091490180915E3090915F30A091603016
:100DC200B0916130820F931FA11DB11D80939630A7
:100DD20090939730A0939830B093993081E08093AC
:100DE200B1308093B23080E4809309048091090489
:100DF20084FF82C08091B330882349F08091B33060
:100E0200823029F08091B330833009F072C0809132
:100E1200B23081116EC081E08093B23020914801DE
:100E22003091490180915E3090915F30A0916030A5
:100E3200B0916130820F931FA11DB11D8093963036
:100E420090939730A0939830B09399308091B330BB
:100E5200823009F1833009F449C081114AC082E02D
:100E62008093B130209148013091490180915E30E8
:100E720090915F30A0916030B0916130820F931FEA
:100E8200A11DB11D8093623090936330A0936430B2
:100E9200B09365302EC083E08093B1302091480139
:100EA2003091490140915E3050915F3060916030E5
:100EB20070916130C0906230D0906330E0906430C5
:100EC200F0906530C901A0E0B0E08C199D09AE092F
:100ED200BF09840F951FA61FB71F8093623090939E
:100EE2006330A0936430B093653003C084E0809394
:100EF200B13080E180930904BF91AF919F918F91AE
:100F02007F916F915F914F913F912F91FF90EF9061
:0C0F1200DF90CF901F901FBE1F9018951D
:100F1E00CF92DF92EF92FF92CF93DF93EC0180910D
:100F2E008E3090918F30A0919030B0919130892B6E
:100F3E008A2B8B2B41F520914801309149018091EC
:100F4E005E3090915F30A0916030B0916130820F31
:100F5E00931FA11DB11D80938E3090938F30A0935F
:100F6E009030B093913010928A3010928B30109254
:100F7E008C3010928D3010928630109287301092F5
:100F8E00883010928930662309F460C020914801A0
:100F9E003091490140915E3050915F3060916030E8
:100FAE0070916130C0908E30D0908F30E090903044
:100FBE00F0909130C901A0E0B0E08C199D09AE0906
:100FCE00BF09840F951FA61FB71F883B9B40A10525
:100FDE00B105E0F18091863090918730A0918830F4
:100FEE00B0918930892B8A2B8B2BF1F060918A304E
:100FFE0070918B3080918C3090918D302091863015
:10100E003091873040918830509189300E947B1208
:10101E00288339834A835B8340E061E080E00E944D
:10102E00F9120E94BD1204C0188219821A821B8204
:10103E0010928E3010928F3010929030109291301C
:10104E001092B13081E08093AF3029C00E94061417
:10105E0040918A3050918B3060918C3070918D30F0
:10106E00480F591F611D711D40938A3050938B306C
:10107E0060938C3070938D30809186309091873054
:10108E00A0918830B09189300196A11DB11D809339
:10109E00863090938730A0938830B0938930DF915B
:0C10AE00CF91FF90EF90DF90CF9008955D
:1010BA00CF92DF92EF92FF926B017C018091A63072
:1010CA009091A7308093A4309093A530B701A601E0
:1010DA008AE590E30E942C1180939E3090939F3072
:1010EA009601281B390BC9010E94FF098093A6307B
:1010FA009093A7302091A4303091A53033237CF50A
:10110A0099230CF462C04091A0305091A1304093D1
:10111A00AA305093AB306091A2307091A3306093A3
:10112A00A8307093A930E1E0F0E0E0939C30F093AE
:10113A009D3010929A3010929B301092A0301092EB
:10114A00A130461B570BBA016952710941E06B3E47
:10115A00744008F040E012161306DCF13EC0121685
:10116A001306ACF41816190694F040E001C040E0EA
:10117A0010929C3010929D3061E070E060939A303A
:10118A0070939B301092A2301092A33016C04091F7
:10119A009C3050919D30452B49F040E02817390783
:1011AA0034F48093A0309093A13001C040E0609164
:1011BA009A3070919B30672B99F08217930784F4C9
:1011CA008093A2309093A3300BC0121613067CF2C0
:1011DA00DECF1816190614F3CBCF281739070CF3EC
:0C11EA00842FFF90EF90DF90CF900895CD
:1011F600EF92FF920F931F93CF93DF93CDB7DEB796
:10120600C058D109CDBFDEBF7C01E0EAF4E088E03A
:1012160081838583E0E6F4E09CE091838683ADE8F4
:10122600B0E21197F1F70000858384E08683B5ED7F
:1012360028E082E0B15020408040E1F786E793E65F
:101246000E945E136AE773E68E010F5F1F4FC801A7
:101256000E945A0F83E59DE289839A838CE290E08F
:101266008B839C83B701C8010E94AE13F8010190DD
:101276000020E9F731978DE09AE08083918312820E
:10128600C8010E945E136AE773E6C8010E945A0FFE
:1012960080E893E60E945E1365E873E6C8010E9443
:1012A6005A0F8BE893E60E945E1365E873E6C80161
:1012B6000E945A0F85E993E60E945E1365E873E67D
:1012C600C8010E945A0F85EA93E60E945E136AE7F8
:1012D60073E6C8010E945A0F8FEA93E60E945E13D6
:1012E60065E873E6C8010E945A0FC058DF4FCDBFAC
:1012F600DEBFDF91CF911F910F91FF90EF90089580
:101306000F931F93CF93DF93CDB7DEB76197CDBF12
:10131600DEBF8C01BE016F5F7F4F89E00E94BF1068
:10132600198A8981888B8A818F878B818E878E85A2
:101336009F85A889B9898A879B87AC87BD878A8557
:101346009B85AC85BD85A370BB278A879B87AC87A9
:10135600BD878A859B85AC85BD85F8018483958389
:10136600A683B783198A8C81888B8D818F878E811E
:101376008E878E859F85A889B9898A879B87AC8742
:10138600BD878A859B85AC85BD85A370BB278A876B
:101396009B87AC87BD878A859B85AC85BD85808309
:1013A6009183A283B383198A8F81888B88858F87DF
:1013B60089858E878E859F85A889B9898A879B8727
:1013C600AC87BD878A859B85AC85BD85A370BB2709
:1013D6008A879B87AC87BD878A859B85AC85BD85BB
:1013E60080879187A287B3876196CDBFDEBFDF91E5
:0813F600CF911F910F910895A2
:1013FE00BF92CF92DF92EF92FF920F931F93CF93F4
:10140E00DF93B090AC302B2D30E0F901EE0FFF1FC3
:10141E00EE5FFF4C80839183F9013B97EF71FF27BD
:10142E00EE0FFF1FEE5FFF4C8081C12CD12CD82E0A
:10143E00DD0CDD0CDD0CDD0CE12CF12CCEE7D8E65D
:10144E0020E030E06B2D70E08B01065111094991BF
:10145E005991D801A20FB31FAF71BB27AA0FBB1FA3
:10146E00AE5FBF4CFB01E21BF30BEF71FF27EE0FDC
:10147E00FF1FEE5FFF4C8D919C910190F081E02D4E
:10148E008E0F9F1F849FF001859FF00D949FF00D8E
:10149E001124CE0EDF1EE11CF11C2F5F3F4F2B30AF
:1014AE003105A9F681E08B0D8F718093AC30D70199
:1014BE00C601072E7FE0B595A795979587957A95E6
:1014CE00D1F7702DDF91CF911F910F91FF90EF907B
:0814DE00DF90CF90BF9008954C
:1014E600A2E0B0E0E9E7FAE00C9415133C016B01C9
:1014F600FB0122813381A480B5808081918189831B
:101506009A8386809780FA012080318042805380BA
:10151600B201A10157FE07C044275527BA01421957
:1015260053096409750937FD03C08D7F89839A8342
:10153600950157FC05C0898182FD02C083FF02C068
:1015460021503109CE0101967C010AE010E0C60166
:101556000E948D0C57FC03C0298122FF0AC0019707
:10156600F401E80FF91F57FC02C02BE209C02DE277
:1015760007C023FF06C00197F401E80FF91F20E218
:10158600208309811A81F601408551854150510910
:10159600481B590BB401680F791F9501C3010E94BE
:1015A60086109C01F3018081918190FF06C0F601AF
:1015B60082819381821793070CF4C9012296E2E196
:0415C6000C94461328
:1015CA0010C00E94AA1458F00E94A31440F029F4F3
:1015DA005F3F29F00C94BE1451110C94B2140C9470
:1015EA00DD140E94591268F39923B1F3552391F33C
:1015FA00951B550BBB27AA2762177307840738F078
:10160A009F5F5F4F220F331F441FAA1FA9F335D0D4
:10161A000E2E3AF0E0E832D091505040E695001C88
:10162A00CAF72BD0FE2F29D0660F771F881FBB1F42
:10163A00261737074807AB07B0E809F0BB0B802D20
:10164A00BF01FF2793585F4F3AF09E3F510578F04C
:10165A000C94BE140C94B2145F3FE4F3983ED4F396
:10166A00869577956795B795F7959F5FC9F7880F20
:10167A00911D9695879597F90895E1E0660F771F72
:10168A00881FBB1F621773078407BA0720F0621B03
:0E169A00730B840BBA0BEE1F88F7E0950895D2
:1016A8000FC00E94A31438F00E94AA1420F09523BA
:1016B80011F00C94BE140C94DD1411240C94B21483
:1016C8000E94591270F3959FC1F3950F50E0551F72
:1016D800629FF001729FBB27F00DB11D639FAA277F
:1016E800F00DB11DAA1F649F6627B00DA11D661FCE
:1016F800829F2227B00DA11D621F739FB00DA11DEF
:10170800621F839FA00D611D221F749F3327A00DA8
:10171800611D231F849F600D211D822F762F6A2F44
:1017280011249F5750409AF0F1F088234AF0EE0FA9
:10173800FF1FBB1F661F771F881F91505040A9F7D6
:101748009E3F510580F00C94BE140C94B2145F3F78
:10175800E4F3983ED4F3869577956795B795F79512
:10176800E7959F5FC1F7FE2B880F911D969587958A
:0417780097F9089540
:10177C00CF93DF93DC01F90168387105F1F05CF46B
:10178C006138710561F164387105A1F1603871053A
:10179C0009F051C02FC0603C710509F441C0603F95
:1017AC007105F1F1603A710509F045C0C081D18134
:1017BC00CE0102968083918325C0C081D181CE0158
:1017CC00029680839183452B39F04881042E000CBE
:1017DC00550B660B770B1CC0488150E029C0C081AB
:1017EC00D181CE01049680839183488159816A818D
:1017FC007B810EC0C081D181CE0102968083918302
:10180C00452BA1F048815981052E000C660B770BF6
:10181C004D935D936D937C93139781E090E00DC095
:10182C00C081D181CE0102968083918348815981F8
:10183C0060E070E0EDCF80E090E0DF91CF91089513
:10184C0011C00E94A31438F00E94AA1420F039F49D
:10185C009F3F19F426F40C94DD140EF4E095E7FB8D
:10186C000C94BE14E92F0E94591258F3BA17620750
:10187C0073078407950720F079F4A6F50C94B1143E
:10188C000EF4E0950B2EBA2FA02D0B01B90190018F
:10189C000C01CA01A0011124FF27591B99F0593FD3
:1018AC0050F4503E68F11A16F040A22F232F342F1B
:1018BC004427585FF3CF469537952795A795F04069
:1018CC005395C9F77EF41F16BA0B620B730B840B7E
:1018DC00BAF09150A1F0FF0FBB1F661F771F881F36
:1018EC00C2F70EC0BA0F621F731F841F48F487958E
:1018FC0077956795B795F7959E3F08F0B0CF939580
:0E190C00880F08F09927EE0F9795879508959C
:10191A00A0E0B0E0E3E9FCE00C941713DC01280135
:10192A001696AD90BC901797F70180819181129617
:10193A00ED91FC9113971896CD91DC911997219707
:10194A00F7FF02C0E1E0F0E0CA0DDB1D1882690171
:10195A00A1E0B0E08F01021B130B4C01F2E08F22D1
:10196A009924052C000C66087708CE018A199B0970
:10197A00CA15DB0519F1411551056105710589F093
:10198A00CB01BA01A30192010E947B12CA01A62FC0
:10199A00B72F605D6A9341E0C41AD108A901BC015E
:1019AA00E4CF98012C0D3D1D121613064CF31C149E
:1019BA001D0434F48114910419F702C080E090E008
:1019CA00AB2B31F4F701208131812F7E20833183C3
:0A19DA00CDB7DEB7E0E10C9448132E
:1019E400A2E0B0E0E8EFFCE00C9419134C016B01A9
:1019F400FB01228133816480758080819181898398
:101A04009A83A680B78037FD03C08D7F89839A832C
:101A1400FA014081518162817381CE0101967C017A
:101A240008E010E09301C6010E948D0C298124FF77
:101A340006C00197F501E80FF91F20E320832981EF
:101A440023FF06C00197F501E80FF91F20E2208368
:101A540009811A81F6014085518541505109481B7D
:101A6400590BB501680F791F9301C4010E948610B8
:101A74009C01F4018081918190FF06C0F60182816E
:101A84009381821793070CF4C9012296EEE00C941B
:021A94004A13F3
:101A96007F928F929F92AF92BF92CF92DF92EF92F8
:101AA600FF920F931F93CF93DF93CDB7DEB7DA95EF
:101AB600CDBFDEBF6115710591F1082F192F4B01BE
:101AC600C12CD12C0F2EFDEBAF2EF3E6BF2EF02D41
:101AD6006894772477F87E0181E8E80EF11CF80116
:101AE600808191810E5F1F4F9F938F93BF92AF921C
:101AF6001F927F92FF92EF920E947413C7010E9479
:101B06005E136AE773E6CE0101960E945A0FFFEF55
:101B1600CF1ADF0ACDBFDEBFC814D90401F7D395AB
:101B2600CDBFDEBFDF91CF911F910F91FF90EF9058
:101B3600DF90CF90BF90AF909F908F907F90089549
:101B46000E944B1440E460EE88E00E94D31340E10B
:101B56006FEE88E00E94D31347E068EF89E00E94A9
:101B6600D31340E26FE98AE00E94D31344E063EEA8
:101B76008AE00E94D31343E06CEF8AE00E94D313FD
:101B86006FE18CE00E941D0F6FE18DE00E941D0F3A
:101B96006FE18EE00E941D0F6FE180E10E941D0F34
:101BA60041E068EF81E10E94D31340E26FE881E1F2
:101BB6000E94D31343E068EF82E10E94D31360E0F2
:101BC60084E00E941D0F60E085E00E941D0F60E02A
:101BD60086E00E941D0F6AE08CE00E941D0F60E007
:081BE6008EE00E941D0F08951E
:101BEE000F931F93CF93DF93DB01109719F48FEFB1
:101BFE009FEF3DC02D913C91119730FF25C0169659
:101C0E004D915C91179714962D913C911597421713
:101C1E00530778F41296ED91FC91139780831296E8
:101C2E002D913C9113972F5F3F4F12962D933C931E
:101C3E00139716962D913C9117972F5F3F4F16963F
:101C4E002D933C93179713C01C96ED91FC911D9705
:101C5E00309769F2EB01092F182F0995892B39F668
:101C6E008E819F8101968E839F83812F902FDF918E
:081C7E00CF911F910F91089511
:101C860010927E3010927F30109280301092813008
:101C960010927A3010927B3010927C3010927D3008
:101CA6001092763010927730109278301092793008
:101CB6001092623010926330109264301092653048
:101CC60010927230109273301092743010927530F8
:101CD60010926E3010926F301092703010927130F8
:101CE6001092AE30109266301092673010926830C3
:101CF600109269301092AD3010928E3010928F3063
:101D06001092903010929130EAE6F0E31082118240
:061D160012821382089501
:101D1C009091A5089370913031F0E0EAF8E093E0EF
:101D2C00948391E095839EEA9093A708E0EAF8E00B
:101D3C009581907CE9F39091A50894FF05C083E010
:101D4C008093A4088FEF08958093A808E0EAF8E048
:101D5C00858186FFFDCF8091A50884FF05C083E0B7
:101D6C008093A4088FEF08958FEA8093A708E0EA88
:101D7C00F8E08581807CE9F38091A50884FF05C09B
:101D8C0083E08093A4088FEF0895E0EAF8E0858162
:101D9C008823ECF7E0EAF8E0808597E094830895D7
:101DAC00A2E0B0E0ECEDFEE00C9419135C016B01C9
:101DBC00FB0122813381848095808081918189838C
:101DCC009A836680778037FD03C08D7F89839A83E1
:101DDC00FA014081518162817381CE0101967C01AF
:101DEC000AE010E09401C6010E948D0C09811A8151
:101DFC00F6014085518541505109481B590BB301DF
:101E0C00680F791F9401C5010E9486109C01F50191
:101E1C008081918190FF06C0F601828193818217A7
:0E1E2C0093070CF4C9012296EEE00C944A13C1
:101E3A009091A5089370913031F0E0EAF8E093E0D0
:101E4A00948391E095839EEA9093A708E0EAF8E0EC
:101E5A00958196FFFDCF9091A50894FF04C083E079
:101E6A008093A40808958093A808E0EAF8E08581A1
:101E7A0086FFFDCF8091A50884FF04C083E080938C
:101E8A00A40808956093A808E0EAF8E0858186FF2F
:101E9A00FDCF8091A50884FF04C083E08093A40845
:0A1EAA00089583E08093A4080895D2
:101EB400AF92BF92CF92DF92EF92FF920F931F9354
:101EC400CF93DF937C016B0180E8F70111928A952F
:101ED400E9F7FB0101900020E9F73197E61BF70BC6
:101EE400DE2FC0E05F01BB2408C087010C0F111D69
:101EF4000E947D14F8018083CF5FCD17B0F38C2F3F
:101F040090E08A199B09B6018E0D9F1D0E9423142F
:101F1400892B59F7DF91CF911F910F91FF90EF908B
:0A1F2400DF90CF90BF90AF900895BA
:101F2E00E89409C097FB3EF4909580957095619565
:101F3E007F4F8F4F9F4F9923A9F0F92F96E9BB271B
:101F4E009395F695879577956795B795F111F8CF97
:101F5E00FAF4BB0F11F460FF1BC06F5F7F4F8F4F02
:101F6E009F4F16C0882311F096E911C0772321F0F8
:101F7E009EE8872F762F05C0662371F096E8862F90
:101F8E0070E060E02AF09A95660F771F881FDAF7E7
:0A1F9E00880F9695879597F908952E
:101FA80084E190E08093AA309093AB308CEE9FEF61
:101FB8008093A8309093A9301092A6301092A73041
:101FC8001092A4301092A5301092A2301092A33033
:101FD8001092A0301092A13010929E3010929F3033
:101FE80010929C3010929D3010929A3010929B3033
:101FF80010925A3010925B3010925C3010925D3023
:10200800E2E0F0E382E490E311921192E817F90715
:08201800D9F71092AC300895D5
:10202000A2E8B0E0E6E1F0E10C941B135C014A0188
:10203000CF57DF4F68837983C158D040C12CD12C52
:10204000CF57DF4FE881F981C158D0408081882384
:10205000E9F07401860120E830E0AE014F5F5F4F88
:10206000BE016F577F4FC5010E947B008C0D9D1DE7
:102070008C159D054CF48FE490E080930030909394
:1020800001308FEF9FEF03C06C01DACFC601CE574E
:08209000DF4FECE00C944C134F
:10209800A0E1B0E0E2E5F0E10C942113FB01BA0104
:1020A800AE014F5F5F4F7A0140E1D7011D924A951B
:1020B800E9F742E051E049835A838B839C83F7FF19
:1020C80009C08FE490E080930030909301308FEF47
:1020D8009FEF14C0A9018C013197ED83FE83C701DE
:1020E8000E942E134F8158852D813E814217530738
:1020F80008F49A01F801E20FF31F10826096E6E0F7
:042108000C945213CE
:10210C00A0E0B0E0ECE8F0E10C941B136C015B0177
:10211C007A01E901480181E08822992400FD03C07D
:10212C004217530750F0A701B501C6010E94DC12FB
:10213C00EC16FD0610F0C70117C08E010E191F0911
:10214C000115110541F0B60180E290E00E94F70DF7
:10215C0001501109F5CF8114910429F4A701B5019F
:10216C00C6010E94DC12CE01CDB7DEB7ECE00C94B8
:02217C004C1302
:10217E009EEA9093A708E0EAF8E0958196FFFDCFDE
:10218E0097E09093A808E0EAF8E0958196FFFDCFDE
:10219E00E0EAF8E091E094839FEA97839581992392
:1021AE00ECF78823D9F0A62FB72F20E030E0E0EA35
:1021BE00F8E0482F50E04150510962E077E09581F8
:1021CE009923ECF790859D934217530711F474836E
:0E21DE0001C064832F5F3F4F281788F30895D8
:1021EC00CF92DF92EF92FF928091B030882349F129
:1021FC00209148013091490140915E3050915F30FF
:10220C006091603070916130C0909230D09093307A
:10221C00E0909430F0909530C901A0E0B0E08C19BA
:10222C009D09AE09BF09840F951FA61FB71F843FD8
:10223C009140A105B10528F080E28093060410922C
:0C224C00B030FF90EF90DF90CF9008952D
:102258000F931F93FC010081118122813381DB01DF
:10226800CA01072E7FE0880F991FAA1FBB1F7A9506
:10227800D1F7702D801B910BA20BB30B689413F848
:10228800B595A795979587951694D1F7800F911FC7
:10229800A21FB31F80839183A283B383072E7FE09D
:1022A800B595A795979587957A95D1F7702D1F9134
:0422B8000F910895E5
:1022BC000E94611288F09F5798F0B92F9927B75157
:1022CC00B0F0E1F0660F771F881F991F1AF0BA95CE
:1022DC00C9F714C0B13091F00E94B114B1E0089567
:1022EC000C94B114672F782F8827B85F39F0B93F59
:1022FC00CCF3869577956795B395D9F73EF4909581
:0E230C008095709561957F4F8F4F9F4F08957C
:10231A00DC01ED91FC91119780818A3221F080E0F5
:10232A0090E03AE00EC03196ED93FC93DB01ED911B
:10233A00FC911197CF0102968D939C938081918194
:10234A000895ED91FC911197208120532A3068F469
:10235A00389FA001399F500D1124CA01820F911D87
:0C236A003196ED93FC931197ECCF089591
:1023760024242400434D443E2000505A0D0A0041B7
:102386004F4B0D0A0050532C313832360D0A00508F
:10239600432C324144322C31432C32300D0A004C4E
:1023A600532C324144320D0A005348572C303037F3
:1023B600322C30300D0A005348572C303037322C2F
:0723C600253034580D0A0018
:1023CE00A0E0B0E0EDEEF1E10C941D137C01FB01F9
:1023DE00EA01C901A280B380C480D5800081118139
:1023EE00209711F4C3EBD9E6009719F4CE010E94A1
:1023FE003114B7FC04C0A816B90608F4C50196013D
:10240E00AC01BE01C7010E948610CDB7DEB7EAE06F
:04241E000C944E13B9
:102422008F938FB78F939F93AF93BF9380915E30BB
:1024320090915F30A0916030B091613088519C4F93
:10244200AF4FBF4F80935E3090935F30A093603068
:10245200B093613081E080934301BF91AF919F912E
:082462008F918FBF8F91189537
:10246A00990F0008550FAA0BE0E8FEEF161617069B
:10247A00E807F907C0F012161306E407F50798F003
:10248A00621B730B840B950B39F40A2661F0232B1C
:10249A00242B252B21F408950A2609F4A140A69598
:0824AA008FEF811D811D0895D3
:1024B20057FD9058440F551F59F05F3F71F04795F3
:1024C200880F97FB991F61F09F3F79F087950895D8
:1024D200121613061406551FF2CF4695F1DF08C0F7
:1024E200161617061806991FF1CF86957105610514
:0424F20008940895AD
:1024F600A1E21A2EAA1BBB1BFD010DC0AA1FBB1F02
:10250600EE1FFF1FA217B307E407F50720F0A21B73
:10251600B30BE40BF50B661F771F881F991F1A94E0
:1025260069F760957095809590959B01AC01BD010A
:04253600CF01089534
:10253A00CF93DF93EC0190E0E92FF0E0EE0FFF1F5D
:10254A00EE53F7498081811102C081810EC0A881B2
:10255A00B9812C91821305C091811196A883B98300
:10256A0001C09F5F9B3040F3892FDF91CF9108957F
:10257A0080E28093050420914801309149018091BD
:10258A005E3090915F30A0916030B0916130820FDF
:10259A00931FA11DB11D8093923090939330A09305
:0E25AA009430B093953081E08093B030089566
:1025B800A0E0B0E0E2EEF2E10C941F136C01EB0135
:1025C8008A017B01E40EF51ECE15DF0541F08991E5
:1025D800B601082E000C990B0E94F70DF5CFC80123
:0A25E800CDB7DEB7E8E00C94501305
:1025F200882321F080E88093650403C080E88093FB
:102602006604662321F080E28093650403C080E2C1
:1026120080936604442321F080E8809305040895A2
:0826220080E88093060408958E
:10262A002F923F924F925F926F927F928F929F92D8
:10263A00AF92BF92CF92DF92EF92FF920F931F93C6
:10264A00CF93DF93CDB7DEB7CA1BDB0BCDBFDEBF9F
:02265A000994E1
:10265C00A2E0B0E0E4E3F3E10C9423138C01498392
:10266C005A83AE014F5F5F4F0E941010F80120811A
:10267C0024FF02C08FEF9FEF2296E4E00C945413DA
:10268C002A88398848885F846E847D848C849B84F6
:10269C00AA84B984C884DF80EE80FD800C811B8104
:1026AC00AA81B981CE0FD11DCDBFDEBFED0108953A
:1026BC000F931F93CF93FC018081882359F08F01D6
:1026CC00C0E00E947514CF5FF801EC0FF11D808102
:0C26DC008111F7CFCF911F910F9108954D
:1026E800A0E0B0E0EAE7F3E10C9425139E01255F32
:1026F8003F4F49855A856F8178858D819E810E94DB
:082708004C10E2E00C945613A2
:10271000E0E6F4E08189887F818B81898460818B08
:102720008189877F818BE0E0F6E081E0868391E11B
:06273000928380830895EE
:10273600E0E0F8E08DE695E08087918780EC86837F
:1027460083E08783E0E0F4E080818160808380819C
:062756008D7F80830895D1
:10275C000F931F93CF93DF93EC018B010E943114E5
:10276C00B8018C0F9D1F0E948D14CE01DF91CF916B
:06277C001F910F9108956A
:10278200E0E0F4E08CE0818382898860828B838937
:102792008860838BE0EAF8E08BE0868381E08383C4
:0427A200858308958E
:1027A6001F93CF93DF93182FD62FC42F0E948E0E20
:1027B6008D23682F6C2B812F0E941D0FDF91CF91E7
:0427C6001F910895C2
:1027CA00092E0394000C11F4882352F0BB0F40F435
:1027DA00BF2B11F460FF04C06F5F7F4F8F4F9F4F75
:0227EA00089550
:1027EC00E0E0F4E080818F7B80839AE0968B80819F
:1027FC008F7E8083948B80E4818780E1818708952C
:10280C0081E080930806E0E0F6E0838580FFFDCF51
:0E281C00E0E0F6E081E08387808991890895ED
:10282A00E0E4F1E0178289EA808381E082831086FE
:0C283A00118680E094E082879387089567
:10284600DC01FB019D912191921303C09111FACFF6
:0C285600292F892F90E0821B9109089522
:10286200FC01AF014F5F5F4F2081222311F0FA017B
:0C287200F8CF9F01281B390BC901089505
:10287E00AC00410143029F03500542075609640B09
:08288E003F0DB80EAC0F001065
:1028960040E46FEB89E00E94D31389E00E948E0E1C
:0628A60086FDFBCF089542
:1028AC00EC010E94E8140E94E714CE010E94E91486
:0628BC00CE010E94E514AC
:1028C20068076C094C836A9074A07AC0008068889B
:0628D20000846C8200810D
:1028D8009C01215631092A31310510F48F75992749
:0228E800089551
:1028EA00E0E0F8E0948195FFFDCF80930208089517
:1028FA00E0E0F8E084818823ECF7809100080895ED
:10290A009C01215431092A31310508F48062089565
:10291A00FC01DB012D91BD0121932111FACF08950C
:0E292A0080EA8093610480E8809301040895A0
:0E2938005058BB27AA270E94260C0C94E513CA
:0E29460000240A9416161706180609060895AE
:0E29540000240A9412161306140605060895B0
:0E296200E894BB2766277727CB0197F90895E5
:0C297000E0E0F4E0808180628083089544
:0C297C0097F99F6780E870E060E0089524
:0A2988000E94351208F481E0089562
:0A2992000E94351208F48FEF08953B
:08299C000E94E50A0C94E5130A
:0829A4000E94540B0C94E51392
:0729AC0046697444657600E2
:0729B300286E756C6C290011
:0629BA009FEF80EC089580
:0629C000286E696C29007D
:0429C6000C9400006D
:0429CA000E947900EE
:0229CE0008956A
:0229D000089568
:0229D200089566
:0229D400E2FF20
:0229D6001E00E1
:00000001FF
